:060000000C9446000C9474
:1000060000000C9400000C9400000C9400000C946A
:1000160000000C9400000C9400000C9400000C945A
:1000260000000C9400000C9400000C9400000C944A
:1000360000000C9400000C9400000C9400000C943A
:1000460000000C9400000C9400000C9400000C942A
:1000560000000C9400000C9400000C9400000C941A
:1000660000000C9400000C9400000C9400000C940A
:1000760000000C9400000C9400000C9400000C94FA
:1000860000000C940000F894EE27ECBBF1E0F5BFFD
:10009600E5BFE0936C008DE0A2E0BB27ED938A9567
:1000A600E9F780E090E1A0E0B1E0ED930197E9F790
:1000B6008BBFEFEFEDBFE0E1EEBFC0E0D5E00C9403
:1000C600BF00BA93AA931A930A9300E010E0EC815A
:1000D600D801F0E0AE17BF07B0F4ED81AE81BF8165
:1000E600EC93A885B9850A2EEC91AD81EA2B66D0F2
:1000F600A885B9850A2EAC91ED81E095EA235ED0FC
:100106000F5F1F4FE4CF198108812A960895BA938D
:10011600AA930E940101A985BA85EFEFEC9320E02E
:1001260030E0EE81FF812E173F0710F500E010E06A
:100136000830E0E01E07CCF4A885AC3429F4E02FA3
:10014600A0E80E94F90007C0A885A23539F4E02F7F
:10015600A1E00E94F100AB85BC85EC93AC81BD812A
:100166000E94E7000F5F1F4FE3CF2F5F3F4FD9CFAE
:100176000E9406012D960895E2E3F0E0FA93EA93D1
:10018600E1E3F0E0FA93EA93EAEAEA93E3E0EA933A
:10019600A4EFB1E096DFE3E2F0E0FA93EA93E2E25D
:1001A600F0E0FA93EA93ECE4EA93E2E0F0E0FA9303
:1001B600EA93A8ECB0E0ABDFDFCFFFCFA02DEC9346
:1001C600AA81BB810C94E700109639F080ED97E088
:1001D6000197F1F7A8951197C9F70895EE230E2E0A
:1001E600EA2F19F0EE0F0A94E9F70895EE230E2E82
:1001F600EA2F19F0E6950A94E9F708953A932A93B7
:100206001A930A9308953B812A81198108810895DA
:00000001FF
