:020000000C945E
:1000020064000C9400000C9400000C9400000C940A
:1000120000000C9400000C9400000C9400000C945E
:1000220000000C9400000C9400000C9400000C944E
:1000320000000C9400000C9400000C9400000C943E
:1000420000000C9400000C9400000C9400000C942E
:1000520000000C9400000C9400000C9400000C941E
:1000620000000C9400000C9400000C9400000C940E
:1000720000000C9400000C9400000C9400000C94FE
:1000820000000C9400000C9400006400C800900171
:100092002003F8FFFCFFFEFFFFFF54656D706572E1
:1000A20061747572653A20252E3166002D4E414EDF
:1000B200000001002D4E414E00494E460000010055
:1000C2000905B4000000F894EE27ECBBF1E0F5BF9F
:1000D200E5BFE0936C008DE0A2E0BB27ED938A952B
:1000E200E9F780E090E1A0E0B1E0ED930197E9F754
:1000F200E0ECF0E085919591009761F0A591B591C2
:1001020005901590BF01F00105900D920197E1F75E
:10011200FB01F0CF8BBFEFEFEDBFE0E1EEBFC0E040
:10012200D5E00C941101ECEFE1BB0895AA93E2B380
:10013200EF700E948606E170E295E07FEA2B0E9452
:100142008606E695E170E295E07FEE0FEA2B0E94CB
:100152008606E695E695E170E295E07FEE0FEE0FFA
:10016200EA2B0E948606E695E695E695E170E7950C
:10017200E0E0E795EA2BE2BB24C0939AA1E0B0E06D
:100182000E948B079398A1E0B0E00E948B0708952C
:10019200AA9392980DC0A2E0FBDFA8E2F9DFACE0DF
:1001A200F7DFA6E0F5DFA1E0F3DF0895AA93929AC4
:1001B200E881E295EF70AE2FB9DFDFDFA881B6DF0D
:1001C200DCDF21960895BA93AA93EA81FB813097E6
:1001D20021F4A881A058DCDF17C0E130A0E0FA07C3
:1001E20021F4A881A054D4DF0FC0E230A0E0FA07C6
:1001F20021F4A881AC56CCDF07C0E330A0E0FA07B7
:1002020019F4A881AC52C4DFAC81BD81EC91E0301D
:1002120031F0ED91AC83BD83AE2FC8DFF5CF7DC049
:1002220068970E949507E0E0F0E0FA93EA93EA9378
:10023200EA93A1E0C2D077DFAEDFA0E0B0E06FD0FA
:100242000E94530AFE013496FA93EA93ECE9F0E035
:10025200FA93EA930E948B060E94580A84E00E9455
:1002620049052896FE013496FA93EA93E1E0F0E01C
:10027200FA93EA93A1E0B0E0A6DFA8ECB0E00E9416
:100282008B07DBCFFFCFBA93AA931A930E949507ED
:10029200E03011F4E0E08EC0E981FA81309781F01C
:1002A200A5E50E94FF0710E0A981BA81ED91A9831B
:1002B200BA83AE2F0E94FF071F5F1830A8F303C056
:1002C200ACEC0E94FF07E1E075C0BA93AA930E94CA
:1002D200750AAC81BD81D7DFE03011F4E0E01BC0CC
:1002E200AEEB0E94FF0710E020E035E03F932F9332
:1002F2002F5F3F4F0E94FA07AF91BF91EC931F5FB0
:100302001930A0F3E0E0F5E0FA93EA93A9E00E9445
:1003120009080E94DF090E947C0A26960895BA9372
:10032200AA931A93A981BA81D0DFE03019F40E940E
:10033200900640C0E0910405E295EF70E695E37007
:100342001E2FA981BA819FDFE03019F40E94900626
:1003520031C0A4E40E94FF07E12FACE8B0E0F0E076
:10036200EE0FFF1FEA0FFB1F0E94460A0E948B0737
:10037200A981BA81AADFE03019F40E9490061AC05E
:100382000E949507E12FA4E9B0E0F0E0EE0FFF1F15
:10039200EA0FFB1F0E94420AA0910005B0910105DD
:1003A200EA23FB230E949506A0E0B0E080E89DE3EB
:1003B2000E941509188123960895AA93AB81BC81E6
:1003C20062DFE03011F4E0E073C0E881E295E07FA3
:1003D200EE0FEF61E883AEE40E94FF07A9810E945D
:1003E200FF07AA810E94FF07A8810E94FF07AB8135
:1003F200BC816BDFE03011F4E0E05AC0A09103054C
:10040200EA81EA1751F4A0910205E981EA1729F479
:10041200A0910405E881EA1711F0E0E049C0AB8140
:10042200BC8131DFE03011F4E0E042C0A8E40E9478
:10043200FF07AFE0B0E00E948B070E94950738C02B
:10044200BA93AA931A930A93AA81BB8112960E9425
:10045200380A309729F1AA81BB8114960E94380A82
:100462008F01309761F00230E0E01E0780F0F80162
:1004720031978F01AA81BB811496ED93FC93AA81D7
:10048200BB8112960E949A063197AC81A083AA8101
:10049200BB810E94380AFF2312F00E949A0606C00E
:1004A200AA81BB81EFEFFFEFED93FC9319810881E5
:1004B200259608950E94A006E0E8EA83EFE3EB8325
:1004C2000E94750AEE85FF85EF3FAFEFFA0749F408
:1004D200E885F985FA93EA93AEEAB0E00E947D05D9
:1004E200B9C0EF3FAFE7FA0749F4E885F985FA9317
:1004F200EA93AFEAB0E00E947D05ACC0AB85A730BD
:1005020010F0E6E0EB871B85E12F1150E03019F087
:100512000E94A706F9CFEC85FD856E857F850E9436
:100522006F0A21F430E00E94A7062DC03B850E948D
:10053200B60609F008F40BC00E94A7060E94B60690
:1005420028F00E94BE060E94C306F8CF0DC00E948A
:10055200B60640F40E94BE060E94CF060E94D6064E
:100562003150F5CF0E94A706EC85FD856E857F850B
:100572000E94DB060E94D6060E94B60620F00E9468
:10058200BE060E94C30610E0EB85E117B8F1AC810C
:10059200BD818E819F810E94E2060E94DB06DF01FF
:1005A200CB010E94D405EC83FD836E837F830E947E
:1005B2008B060E94BE060E9463090E9452080E2FFB
:1005C2000E94E9060E94F006FF27662777270E940D
:1005D2008B08AC81BD818E819F810E9415090E948A
:1005E200BE060E94F5060E94D606E12F1F5FE0308C
:1005F20059F60E94E906EEE2EC93C6CF0E94FA0693
:100602003197AA85A08330302CF43195A885B9851D
:10061200EDE203C0A885B985EBE2EC930E94FA06ED
:100622000E94FA063197BF01A32FEAE00E94F20965
:10063200E05DDB01EC930E94FA063197BF01A32F24
:10064200EAE00E941C0AE05DDB01EC93A885B98513
:10065200E0E0EC930E947C0A60960895BA93AA9314
:10066200EF9761970E94730A10E0FE01E85AFF4F6C
:100672000190F081E02DE887F987FE01EA5AFF4FE9
:100682000190F081E02DEE83FF83AE81BF81E0E037
:10069200F0E0ED93FC93DE01A45ABF4F0E949A064C
:1006A2003197E4912E2FE03009F4E9C1E12FE030D7
:1006B20039F4253211F411E002C00E940007DEC1B4
:1006C200E130C1F4253219F40E940007D6C112E0CC
:1006D200E0E0ED8B00E02D3211F401E0CFC12B32CE
:1006E20019F4EBE2ED8BCAC1203219F4E0E2ED8B92
:1006F200C5C102C0E23039F450E013E0203311F4F6
:100702000068BCC102C0E33091F4203310F02A33F8
:1007120008F007C0AAE05A9F502DE22FE0535E0F67
:10072200ADC140E02E3211F414E0A8C10FC0E43094
:1007320099F4203310F02A3308F008C00062AAE0CE
:100742004A9F402DE22FE0534E0F98C12C3619F4E8
:10075200026015E093C103C0E53009F08FC1E22FBA
:10076200E33659F40E9407070E940E070E9407070A
:10077200A481AA930E94150780C1E53411F0E536E1
:1007820009F403C0E63609F048C0FE017696EE870A
:10079200FF870E941B070E943C0A0E9422070E94B8
:1007A2002707AD85AA2332F0AD89AB3259F0A032CA
:1007B20081F017C00E9429070E941F080E94220789
:1007C200EDE2ED8B07FF05C0ED89EA930E94150764
:1007D20008C0EE85FF853196EE87FF873197AD8998
:1007E200A08305FF46E0263651F40E9429070E94A5
:1007F200580A4A93AB89BC890E94EB0509C00E9442
:1008020029070E94580A4A932A93AC89BD8952DE6D
:10081200FE0176960E942E071EC0E33739F40E942D
:1008220027070E9436070E942E070EC0E037C1F448
:100832000E9427070E943607EE87FF87AE85BF8595
:100842000E9496051E2F08600F77403011F0411765
:1008520008F001C0142F40E0E0E0EC8B30E06DC006
:10086200E43611F0E93611F4046002C0E537A1F470
:10087200EAE0EC8B01FF08C0E0E0FAEC6AE97BE316
:100882000E943B071AE022C0E0E1F7E260E070E07C
:100892000E943B0715E01AC0E83511F4086003C056
:1008A200E83709F0EAC0E0E1EC8B01FF08C0E0E0C4
:1008B200F0E060E070E10E943B0718E007C0E0E072
:1008C200F0E160E070E00E943B0714E0403011F07C
:1008D2000F7701C041E001FF08C00E9427070E9474
:1008E2001B0714960E943C0A0FC002FF07C00E9419
:1008F20027070E9436070E94DA0906C00E942707CE
:100902000E94360766277727EA87FB876C877D87F1
:1009120002FF12C0AD85AA2342F40E9429070E9459
:10092200CC090E942207EDE2ED8BED89E03019F04F
:100932001F5F4F5F01C00B7F342F00FD14C01517DE
:1009420010F4351708F00FC007FF08C002FF04C0FB
:100952000B7F2D89115001C020E301C020E20E94CB
:1009620000075150ECCF141790F4006102FF06C04B
:100972000E94400709F0515011504150E0E3EA93C0
:100982000E941507503009F051504150ECCF312FE1
:10099200EC89E030B9F43030A1F003FF06C0EE85F7
:1009A200FF852591EE87FF8705C0AE85BF852D9116
:1009B200AE87BF870E940007503009F05150315076
:1009C200EACF51C00E9452070E94F7092E2F2A3007
:1009D20030F003FF02C0295C01C0295A01C0205D2A
:1009E20004FD21C0213360F4A889B9898A899B89D1
:1009F200A130E0E0BE07E0E08E07E0E09E0709F4E8
:100A02000BC0431740F4531710F000FF01C010C091
:100A120020E207FF08C020E3006102FF04C00E9439
:100A2200400709F051500E940007503009F0515020
:100A320031500E9452070E94280A0E942207EC8924
:100A4200A889B9898A899B89FF27662777270E9407
:100A5200F7090E943B07E889F9896A897B890E9424
:100A62006F0A09F0AFCF00FF08C0503031F051508B
:100A7200E0E2EA930E941507F8CF10E00CCEAE81B7
:100A8200BF810E94380A0E947A0AEF966F960895F3
:100A9200FF92F82E26970E94750A0E945B073097F4
:100AA20019F4EFEFFFEF23C0DE0116960E94C8098A
:100AB2008D010E945B07EE83FF83E0E0E887E98710
:100AC200DE011A960E94C8090E94380AFA93EA9334
:100AD2001A930A93E1E2F2E0FA93EA93DE011A969C
:100AE200BDDD9F01AE81BF81E0E0EC93F9010E9480
:100AF2007C0A2A96FF900895BA93AA93E991F991F4
:100B0200A991B991CD0105900D920020E1F7FC0168
:100B12000895BA93AA93A991B991EE27FF276D91EF
:100B2200662311F03196FBCF0895BA93AA93AA27B0
:100B3200BB27E991F9910590002011F01196FBCFA6
:100B4200FD0108950E945D0A7B816A81F981E88135
:100B520077FB770F67FD7160972F9E5781F078F0D2
:100B6200983190F4AA27BB27882708948795B795D0
:100B7200A7959A95D1F7EA23FB23682305C0E89449
:100B82007727EE27FF2766276F77769508F4606848
:100B920077F9A991B99189919991EA17FB076807A9
:100BA200790797FB08950E945D0A0E944E0A0E94EF
:100BB200A3050E94530A19F40E94490A09C0E6F7E4
:100BC2000E94490AA0E0B0E080E89FE30E94BE08CC
:100BD20024960895B4D0E0E0EA83EFE3EB831A931E
:100BE2000A93EB85FC85EF3FAFEFFA0731F469D149
:100BF200A6EBB0E00E947D0584C0EF3FAFE7FA07A5
:100C020031F45FD1A7EBB0E00E947D057AC0AC85DC
:100C1200AA2352F4E985FA856B857C850E941F0818
:100C220055D159D1EDE2EC93A885A73010F0E6E05A
:100C3200E8871885E12F1150E03021F053D1C1D05F
:100C420056D1F8CF59D10E94C50840D110E0E0E05A
:100C5200F0E060E87FE34BD14FD10E94A80968F031
:100C620041D19CD044D11F5F173230F02AD1ABEB77
:100C7200B0E00E947D0545C0EFCF103021F42BD1AA
:100C8200E0E3EC931DC0E12F1150E030C9F02AD10E
:100C920098D090D0DF01CB010E94D40528D12CD16D
:100CA2000E9463090E9452080E2F15D198D0F0E0DD
:100CB20019D13AD00E94150928D196D007D1E3CF95
:100CC200E885E030D1F007D1EEE2EC93E885E1501F
:100CD200E887EF5F91F019D161D0F8D0E985FA8504
:100CE2006B857C850E9452080E2FF5D078D0F0E0FB
:100CF2000CD11AD079D0EAD0E9CFAE81BF81E0E041
:100D0200EC93198108812D960895E2BBE2B3AE2FD0
:100D1200E8810895EC81FD816E817F810895E0E094
:100D2200FCE36CE176EC08950E94DA090E948B08DC
:100D32000895ED91FD913196FE93EE930895BA9345
:100D4200AA932497E0E0E883E9830895AC81BD810A
:100D52008E819F81E0E0F0E060E271E40E9415097B
:100D6200EC83FD836E837F830895D4DFAC85BD85DC
:100D72008E859F850E94A8090895AC85BD858E85C4
:100D82009F850895EDECFCEC6CEC7DE30E94150967
:100D9200EC87FD876E877F873F5F0895E0E0F0E094
:100DA20060E271E40E9415090895EC87FD876E8761
:100DB2007F870895A0E0B0E080E09FE30E94C5082D
:100DC2000895EDECFCEC6CEC7DE30E9415090895AE
:100DD200A885B9851196A887B98711970895E02F3C
:100DE200E05DEC93E02F08950E94620A0E94BE0823
:100DF2000895E885F9853196E887F98708952A9359
:100E0200AF81B885E985FA8509950895FE01E65A0C
:100E1200FF4F0190F081E02D08953497DE01A65A2C
:100E2200BF4FED93FC930895AF81B885E985FA85AC
:100E320009950895DE01A65ABF4F0D90BC91A02DD1
:100E42000895EA87FB876C877D870895DFDFE5CF0A
:100E5200EA85FB856C857D850895EE87FF87AE85E3
:100E6200BF850E948A051E2F0895E4DF14960E9412
:100E7200380A0895E88BF98B6A8B7B8B08950B7F78
:100E8200ED89EA93DE01A95ABF4F0D90BC91A02DC6
:100E9200FE01E75AFF4F0190F081E02D0995503095
:100EA2000895E889F9896A897B89AA85BB858C8539
:100EB2009D850895DE011C960E94C8090E94380A89
:100EC2000895EE81FF81FA93EA930895E987FA87FC
:100ED2006B877C870895AE81BF811196AE83BF83F5
:100EE20011970895AA81BB818C819D810895EA831F
:100EF200FB836C837D830895EA81FB816C817D8114
:100F0200A985BA858B859C850895A985BA858B8527
:100F12009C850895109639F080ED97E00197F1F7DE
:100F2200A8951197C9F70895EE27809165008F7EE5
:100F3200809365008091640080618093640080ECFE
:100F420093E00197F1F7809164008F7E80936400B3
:100F520085E28A95F1F78091630084FF08958BEC16
:100F62008A95F1F78091630084FFE1E08CE093E0E1
:100F72000197F1F708959091640090619093640055
:100F820085E08A95F1F79F7E909364008DE18A95C2
:100F9200F1F788948091630084FD0894E79585EDCC
:100FA2008A95F1F70895E894909164009061909386
:100FB200640085E08A95F1F770FD9F7E909364004E
:100FC20083E28A95F1F78091630084FD03C070FF8C
:100FD20003C0089570FF089588EC8A95F1F7809117
:100FE20064008F7E809364008DE08A95F1F76894A7
:100FF200089568E0C0DF6A95E9F708957A2F68E0FE
:10100200EE27D1DF26F477956A95D9F7E39508950F
:10101200EE27AA2389F08A2F68E1A881B98198E096
:10102200FD917F2F7E27779508F4E627E795F695C1
:101032009A95B9F78A9599F7229608953097604064
:10104200704009F070580895552342F4503811F455
:10105200E0FF04C03196691F791F6BF050E85727F3
:1010620011F45F93CFC05F3F31F0660F000C5795CC
:101072006795752F08955F9300200AF0CFC0C8C00E
:1010820050E8192E1522880F991F9527550F87951D
:1010920050E8072E0522660F771F7527550F6795B3
:1010A2000895689401C0E8945F93F2DF703818F0F5
:1010B2007F3F08F4A7C056E1571BAAF45195583058
:1010C2000EF4593030F0EFEFFFEF6FEF7FE777F973
:1010D2001AC077275523B9F0EE0FFF1F661F771F3F
:1010E2005A95D1F710C07727583028F0EF2FF62FF6
:1010F200672F5850F9CF552331F076956795F795BC
:10110200E7955A95D1F700200AF445D15F910895E9
:10111200689401C0E894309760407040B1F00024B8
:1011220026F0772312F4009436D1172E7EE1112097
:1011320032F07A95EE0FFF1F661F111CF9CFEF2FC9
:10114200F62F612D5F938ADF5F9108954F93AF0170
:10115200FD01DA01AB01BC01CA01402D012C142EA4
:101162004F910895EA0FFB1F681F0895E095F095CF
:101172006095EF5FFF4F6F4F08955F9381DF903867
:1011820071F150E8152604C05F937ADF903839F187
:10119200703821F1572F591B2BF112F4D7DFFACFF8
:1011A200583118F0AA27BB278827583028F0AB2FD0
:1011B200B82F88275850F9CF552329F08695B7952F
:1011C200A7955A95D9F7502D512572F0CBDF38F4F7
:1011D2006795F795E795739513F420C0B7DF3EDF67
:1011E2005F910895D8F7FBCFEA1BFB0B680B51F018
:1011F20010F40094BBDF662392F3EE0FFF1F661F0D
:101202007A95CBF7EE27FF27662777275F91089518
:10121200EFEFFFEF6FE77FEF5F910895EFEFFFEFE3
:101222006FE77FE75F9108955F932ADF703851F38C
:10123200903841F301240894791F23F41CF3002011
:101242003AF3ECCF0F921F932F933F934F931127B3
:1012520022279927689FA0018F9F302D410D591F8A
:101262006B9F300D411D591F8E9F27D0BF9F25D0E8
:101272006A9F23D0BE9F1DD0AF9F1BD0AE9F110D82
:10128200291F391F491F591FE32FF42F652F522F92
:101292004F913F912F911F910F9066232AF0550F86
:1012A200EE1FFF1F661F02C073954BF2CDDE5F91EA
:1012B2000895100D211D391F02C0200D311D491F37
:1012C200591F08955F93DCDE703821F411200AF46F
:1012D2009FCFA4CF903809F495CF01240894970B9F
:1012E2001BF4D4F30020F3CF792F1F932F933F9356
:1012F2004F9311241127222733274427552790E2A1
:10130200AE17BF078607410730F0AE1BBF0B860B37
:10131200410B089401C08894551F221F331F111CD2
:10132200AA1FBB1F881F441F9A9551F7F901612D0F
:101332004F913F912F911F91662332F0550FEE1F6F
:10134200FF1F661F7A9543F27FDE5F91089599230E
:101352009AF0772342F0971748F029F4AE17BF07A7
:10136200860720F031F09894889408959894089410
:1013720008951894889408957723C2F7971798F3DD
:10138200A9F7EA17FB07680788F399F3ECCF002463
:10139200AF0DB01D0895F09560957095E195FF4FE2
:1013A2006F4F7F4F0895FE2FFF0FFF0B6F2F7F2F81
:1013B20008956F2F660F660B762F0895EE23E1E0F6
:1013C20009F0EE270895002498E0AA0F001C0E1AD7
:1013D20010F40E0E01C0A1609A95B9F7EA2FA02D64
:1013E200089539D0F0DF0EF4E19508953F934F93BD
:1013F2005F93002411244427552730E2AA0FBB1F14
:10140200881F991F001C111C441F551F0E1A1F0A0A
:10141200460B570B28F40E0E1F1E461F571F01C006
:10142200A1603A9559F7FD01BC01D001CA015F9153
:101432004F913F910895E894A7FF02C0A195689447
:10144200E7FDE195C0DFEA2F0EF4E1950895CEDFC6
:10145200FD01BC010895E894E7FF02C0E19568949C
:10146200A7FF04C0A19500F8039400FA0895ED9136
:10147200FC9111970895ED91FD916D917C911397D7
:1014820008950590F491E02D0895A591B4910895E1
:10149200E881F9816A817B810895A881B9818A8175
:1014A2009B810895E883F9836A837B8308957A9305
:1014B2006A93FA93EA9308959A938A93BA93AA93B2
:1014C2000895182E862F612D192E972F712D1B2E00
:1014D200BF2FF12D1A2EAE2FE12D089530976040C7
:1014E200704008955A934A933A932A931A930A930F
:1014F20008955D814C813B812A811981088108957B
:00000001FF
