:080000000C9446000C94000072
:100008000C9400000C9400000C9400000C94000068
:100018000C9400000C9400000C9400000C94000058
:100028000C9400000C9400000C9400000C94000048
:100038000C9400000C9400000C9400000C94000038
:100048000C9400000C9400000C9400000C94000028
:100058000C9400000C9400000C9400000C94000018
:100068000C9400000C9400000C9400000C94000008
:100078000C9400000C9400000C9400000C940000F8
:100088000C940000F894EE27ECBBF1E0F5BFE5BF57
:10009800E0936C008DE0A2E0BB27ED938A95E9F729
:1000A80080E090E1A0E0B1E0ED930197E9F78BBF24
:1000B800EFEFEDBFE0E1EEBFC0E0D5E00C94AA00A1
:1000C800BA93AA93AA81BB811C90E881A1E0B0E011
:1000D8000E94CB00A12DB0E0EA23FB23309719F052
:1000E800E1E0F0E002C0E0E0F0E024960895BA9381
:1000F800AA93AA81BB81E2E0EC9340D0A5E043D06B
:1001080029F0AC81BD81EC91E260EC9337D0A6E098
:100118003AD029F0AC81BD81EC91ED7FEC932ED0E3
:10012800A7E031D089F02AD0A7E02DD0E1F7AC8143
:10013800BD81EC91E27019F4EC91E26004C0AC81ED
:10014800BD81EC91ED7FEC9326960895E2E3F0E013
:10015800FA93EA93E1E3F0E0FA93EA93A0E3B0E0DC
:10016800C6DFE2E6F0E0FA93EA93E1E6F0E0FA931C
:10017800EA93A0E2B0E0BBDFE9CFFFCFE881F981E5
:10018800FA93EA930895B0E09BDF30970895EE2341
:100198000E2EFD0121F0EE0FFF1F0A94E1F70895DE
:00000001FF
