:0C0000000C9471000C9400000C940000A3
:10000C000C9400000C9400000C9400000C94000064
:10001C000C9400000C9400000C9400000C94000054
:10002C000C9400000C9400000C9400000C94000044
:10003C000C9400000C9400000C9400000C94000034
:10004C000C9400000C9400000C9400000C94000024
:10005C000C9400000C9400000C9400000C94000014
:10006C000C9400000C9400000C9400000C94000004
:10007C000C9400000C9400000C9400000C940000F4
:10008C001027E80364000A000100001000011000B2
:10009C00010054542048544E004E65774269653A2D
:1000AC002044616E680053656520796F7520736F0D
:1000BC006F6E2100436F756E742075703A20256445
:1000CC000000070000059E000D000705A5000E00AE
:1000DC001405B2000000F894EE27ECBBF1E0F5BF7C
:1000EC00E5BFE0936C008DE0A2E0BB27ED938A9511
:1000FC00E9F780E090E1A0E0B1E0ED930197E9F73A
:10010C00EEECF0E085919591009761F0A591B59199
:10011C0005901590BF01F00105900D920197E1F744
:10012C00FB01F0CF8BBFEFEFEDBFE0E1EEBFC0E026
:10013C00D5E00C940101E0916400EC60E093640064
:10014C00EFEFE1BB0895AA93E0916500EB7F11C03E
:10015C00A8E30E940A03ACE00E940A03A6E00E94F6
:10016C000A03A1E00E940A030895AA93E091650096
:10017C00E460E0936500E881E2BBE0916500E86033
:10018C00E0936500E0916500E77FE0936500A1E0F6
:10019C00B0E00E943C0321960895BA93AA93EA8199
:1001AC00FB81309721F4A881A058CDDF17C0E13036
:1001BC00A0E0FA0721F4A881A054C5DF0FC0E230FB
:1001CC00A0E0FA0721F4A881AC56BDDF07C0E330EC
:1001DC00A0E0FA0719F4A881AC52B5DFAC81BD815F
:1001EC00EC91E03031F0ED91AC83BD83AE2FBDDFEF
:1001FC00F5CF26960895649700E010E09CDFA8DF09
:10020C00E0E0F5E0FA93EA93E0E0F0E0FA93EA93A9
:10021C00A0E0B0E0C2DFE7E0F5E0FA93EA93E1E0BA
:10022C00F0E0FA93EA93A1E0B0E0B7DFE4E1F5E0A7
:10023C00FA93EA93E2E0F0E0FA93EA93A2E0B0E0FA
:10024C00ACDFFE01FA93EA93E0ECF0E0FA93EA9368
:10025C00F8010F5F1F4F0E944E030E945B0384E066
:10026C000E94BD022896FE01FA93EA93E3E0F0E0C7
:10027C00FA93EA93A3E0B0E090DFA4E6B0E00E942A
:10028C003C03DFCFFFCFBA93AA931A930A93AA81A8
:10029C00BB8112960E945303309759F1AA81BB81FE
:1002AC0014960E9453038F01309761F00230E0E006
:1002BC001E0798F0F80131978F01AA81BB81149623
:1002CC00ED93FC93AA81BB811296ED91FD91319631
:1002DC00FE93EE933197AC81A083AA81BB810E94DF
:1002EC005303FF232AF0ED91FD913196FE93EE938B
:1002FC0006C0AA81BB81EFEFFFEFED93FC93198150
:10030C00088125960895BA93AA9326970E946003B4
:10031C0010E0AC85BD85E0E0F0E0ED93FC93EA895C
:10032C00FB893196EA8BFB8B3197E4912E2FE030D1
:10033C0009F415C1E12FE03039F4253211F411E044
:10034C0002C00E9410030AC1E130A9F4253219F44D
:10035C000E94100302C112E040E000E02D3211F4C3
:10036C0001E0FCC02B3211F44BE2F8C0203211F446
:10037C0040E2F4C002C0E23039F450E013E0203324
:10038C0011F40068EBC003C0E33009F0E7C0203380
:10039C0010F02A3308F007C0AAE05A9F502DE22F24
:1003AC00E0535E0FDBC0E22FE33649F40E941703E3
:1003BC00E889F989A481AA930E941D03CEC0E33772
:1003CC0041F40E9417030E9423030E94F1021E2F86
:1003DC000AC0E03761F40E9417030E9423030E94B5
:1003EC00FD021E2F086002600F7730E034C0E43647
:1003FC0011F0E93611F4046002C0E53731F4ECE891
:10040C00F0E0EE83FF8315E00CC0E83511F40860D2
:10041C0003C0E83709F0A1C0E6E9F0E0EE83FF8302
:10042C0014E002FF14C00E9417030E942D03AB8539
:10043C00AA233AF4EA85FB850E944A03EA87FB87E4
:10044C004DE2403011F01F5F01C00B7F04C00E94D1
:10045C0017030E942D0300FD11C0151778F407FF38
:10046C0008C002FF04C00B7F242F115001C020E3F1
:10047C0001C020E20E9410035150EFCF312F01FF39
:10048C0017C03030A1F003FF06C0EE81FF8125912B
:10049C00EE83FF8305C0AE81BF812D91AE83BF83F8
:1004AC000E941003503009F051503150EACF4BC02C
:1004BC0020E3EE81FF810E945703E887F987EE81E4
:1004CC00FF813296EE83FF83E885F985AA85BB858B
:1004DC00AE17BF0750F02F5FA885B985EA85FB855D
:1004EC00EA1BFB0BEA87FB87EFCF2A3328F003FFCD
:1004FC0002C0295F01C0295D04FD1AC0213320F41C
:10050C00A885B985119709F409C0531710F000FF9D
:10051C0001C013C020E207FF0BC020E3006102FF03
:10052C0007C00B7F4A930E941D03503009F05150B5
:10053C000E941003503009F051503150A885B985F4
:10054C00129708F0B5CF00FF08C0503031F0515071
:10055C00E0E2EA930E941D03F8CF10E0E0CEAC85F8
:10056C00BD850E9453030E94670364960895FF9211
:10057C00F82E26970E9462030E943503309719F4D7
:10058C00EFEFFFEF23C0DE0116960E9446038D01AC
:10059C000E943503EE83FF83E0E0E887E987DE0104
:1005AC001A960E9446030E945303FA93EA931A93F5
:1005BC000A93E9E4F1E0FA93EA93DE011A96A3DEDA
:1005CC009F01AE81BF81E0E0EC93F9010E946903C9
:1005DC002A96FF900895BA93AA93A991B991EE2700
:1005EC00FF276D91662311F03196FBCF0895BA93D6
:1005FC00AA93AA27BB27E991F9910590002011F045
:10060C001196FBCFFD0108950E94A900A1E0B0E076
:10061C000C943C032A93AD85BE85EF85F88909952A
:10062C000895E889F9893497E88BF98B0895AD859D
:10063C00BE85EF85F88909950895A889B98914961E
:10064C000E945303EE83FF83AE81BF810895A88976
:10065C00B98914960E945303EA87FB870895DE013B
:10066C001C960E9446030E9453030895109639F07D
:10067C0080ED97E00197F1F7A8951197C9F70895C8
:10068C000024AF0DB01D0895F195E195F04008954B
:10069C006F2F660F660B762F0895ED91FC911197D5
:1006AC0008950590F491E02D08957A936A93FA9346
:1006BC00EA9308955A934A933A932A931A930A9376
:1006CC0008955D814C813B812A81198108810895AF
:00000001FF
