:060000000C9471000C9449
:1000060000000C9400000C9400000C9400000C946A
:1000160000000C9400000C9400000C9400000C945A
:1000260000000C9400000C9400000C9400000C944A
:1000360000000C9400000C9400000C9400000C943A
:1000460000000C9400000C9400000C9400000C942A
:1000560000000C9400000C9400000C9400000C941A
:1000660000000C9400000C9400000C9400000C940A
:1000760000000C9400000C9400000C9400000C94FA
:1000860000000C9400001027E80364000A00010039
:10009600001000011000010054542048544E004E38
:1000A60065774269653A2044616E6800536565204C
:1000B600796F7520736F6F6E2100436F756E7420B4
:1000C60075703A2025640000070000059E000D00AB
:1000D6000705A5000E001405B2000000F894EE27EF
:1000E600ECBBF1E0F5BFE5BFE0936C008DE0A2E06C
:1000F600BB27ED938A95E9F780E090E1A0E0B1E0B7
:10010600ED930197E9F7EEECF0E085919591009774
:1001160061F0A591B59105901590BF01F00105908C
:100126000D920197E1F7FB01F0CF8BBFEFEFEDBF2B
:10013600E0E1EEBFC0E0D5E00C941F01ECEFE1BBBF
:100146000895AA93E2B3EF700E942803E170E29546
:10015600E07FEA2B0E942803E695E170E295E07FB6
:10016600EE0FEA2B0E942803E695E695E170E295EC
:10017600E07FEE0FEE0FEA2B0E942803E695E69548
:10018600E695E170E795E0E0E795EA2BE2BB24C04F
:10019600939AA1E0B0E00E9459039398A1E0B0E0E1
:1001A6000E9459030895AA9392980DC0A2E0FBDF1E
:1001B600A8E2F9DFACE0F7DFA6E0F5DFA1E0F3DFC8
:1001C6000895AA93929AE881E295EF70AE2FB9DF6F
:1001D600DFDFA881B6DFDCDF21960895BA93AA9304
:1001E600EA81FB81309721F4A881A058DCDF17C093
:1001F600E130A0E0FA0721F4A881A054D4DF0FC0B3
:10020600E230A0E0FA0721F4A881AC56CCDF07C0A3
:10021600E330A0E0FA0719F4A881AC52C4DFAC8140
:10022600BD81EC91E03031F0ED91AC83BD83AE2F12
:10023600C8DFF5CF26960895649700E010E07EDFCC
:10024600B5DFE0E0F5E0FA93EA93E0E0F0E0FA9358
:10025600EA93A0E0B0E0C2DFE7E0F5E0FA93EA93C4
:10026600E1E0F0E0FA93EA93A1E0B0E0B7DFE4E181
:10027600F5E0FA93EA93E2E0F0E0FA93EA93A2E07B
:10028600B0E0ACDFFE01FA93EA93E0ECF0E0FA931B
:10029600EA93F8010F5F1F4F0E946B030E947803D9
:1002A60084E00E94DB022896FE01FA93EA93E3E0DB
:1002B600F0E0FA93EA93A3E0B0E090DFA4E6B0E0C2
:1002C6000E945903DFCFFFCFBA93AA931A930A93DA
:1002D600AA81BB8112960E947003309759F1AA81B8
:1002E600BB8114960E9470038F01309761F0023033
:1002F600E0E01E0798F0F80131978F01AA81BB81D3
:100306001496ED93FC93AA81BB811296ED91FD9113
:100316003196FE93EE933197AC81A083AA81BB817F
:100326000E947003FF232AF0ED91FD913196FE9312
:10033600EE9306C0AA81BB81EFEFFFEFED93FC932E
:100346001981088125960895BA93AA9326970E9443
:100356007D0310E0AC85BD85E0E0F0E0ED93FC9315
:10036600EA89FB893196EA8BFB8B3197E4912E2F34
:10037600E03009F415C1E12FE03039F4253211F4EB
:1003860011E002C00E942D030AC1E130A9F4253212
:1003960019F40E942D0302C112E040E000E02D3264
:1003A60011F401E0FCC02B3211F44BE2F8C020320C
:1003B60011F440E2F4C002C0E23039F450E013E038
:1003C600203311F40068EBC003C0E33009F0E7C046
:1003D600203310F02A3308F007C0AAE05A9F502DA8
:1003E600E22FE0535E0FDBC0E22FE33649F40E94B2
:1003F6003403E889F989A481AA930E943A03CEC0FE
:10040600E33741F40E9434030E9440030E940F0325
:100416001E2F0AC0E03761F40E9434030E94400395
:100426000E941B031E2F086002600F7730E034C065
:10043600E43611F0E93611F4046002C0E53731F410
:10044600ECE8F0E0EE83FF8315E00CC0E83511F42C
:10045600086003C0E83709F0A1C0E6E9F0E0EE83E2
:10046600FF8314E002FF14C00E9434030E944A0373
:10047600AB85AA233AF4EA85FB850E946703EA87DF
:10048600FB874DE2403011F01F5F01C00B7F04C0B7
:100496000E9434030E944A0300FD11C0151778F428
:1004A60007FF08C002FF04C00B7F242F115001C0B4
:1004B60020E301C020E20E942D035150EFCF312FDF
:1004C60001FF17C03030A1F003FF06C0EE81FF81A7
:1004D6002591EE83FF8305C0AE81BF812D91AE834A
:1004E600BF830E942D03503009F051503150EACF9E
:1004F6004BC020E3EE81FF810E947403E887F987F1
:10050600EE81FF813296EE83FF83E885F985AA8521
:10051600BB85AE17BF0750F02F5FA885B985EA8562
:10052600FB85EA1BFB0BEA87FB87EFCF2A3328F014
:1005360003FF02C0295F01C0295D04FD1AC02133F3
:1005460020F4A885B985119709F409C0531710F04E
:1005560000FF01C013C020E207FF0BC020E30061CB
:1005660002FF07C00B7F4A930E943A03503009F0FE
:1005760051500E942D03503009F051503150A8853A
:10058600B985129708F0B5CF00FF08C0503031F09A
:100596005150E0E2EA930E943A03F8CF10E0E0CE31
:1005A600AC85BD850E9470030E94840364960895FD
:1005B600FF92F82E26970E947F030E9452033097DF
:1005C60019F4EFEFFFEF23C0DE0116960E946303D6
:1005D6008D010E945203EE83FF83E0E0E887E987FE
:1005E600DE011A960E9463030E947003FA93EA934F
:1005F6001A930A93E7E6F1E0FA93EA93DE011A9674
:10060600A3DE9F01AE81BF81E0E0EC93F9010E9479
:1006160086032A96FF900895BA93AA93A991B99151
:10062600EE27FF276D91662311F03196FBCF0895D3
:10063600BA93AA93AA27BB27E991F99105900020BE
:1006460011F01196FBCFFD010895E2BBE2B3AE2F88
:10065600E88108952A93AD85BE85EF85F8890995C9
:100666000895E889F9893497E88BF98B0895AD8563
:10067600BE85EF85F88909950895A889B9891496E4
:100686000E947003EE83FF83AE81BF810895A8891F
:10069600B98914960E947003EA87FB870895DE01E4
:1006A6001C960E9463030E9470030895109639F009
:1006B60080ED97E00197F1F7A8951197C9F708958E
:1006C6000024AF0DB01D0895F195E195F040089511
:1006D6006F2F660F660B762F0895ED91FC9111979B
:1006E60008950590F491E02D08957A936A93FA930C
:1006F600EA9308955A934A933A932A931A930A933C
:1007060008955D814C813B812A8119810881089574
:00000001FF
